:020000040000FA
:060000000A128A11F92F1B
:100F0200831203138C1E862F872F812F1A08F3005A
:100F12007308F100080083160313981C912F922F77
:100F22008C2F720883120313990008000A128A1187
:100F3200AC270A128A110A128A118C270A128A1104
:100F42000A128A1181270A128A1171088312031365
:100F52008600972F0800C730F300AF2FF30BAE2F98
:100F6200B22FB32FC330831203139F051F149F1494
:100F72009F18BC2FBD2FB92F1E08F3007308F20073
:100F82000800831603130F088F3960388F008F1102
:100F92000F118F100F142130831603178800890157
:100FA200213083160313850086019830870088015B
:100FB20001308900831203138501860187018801AC
:100FC20089011F179F1319308316031399001815EF
:100FD2009816181218138312031318169817181359
:100FE2000A128A1197270A128A110A128A110028F4
:0E0FF200F001F101F20183010A128A11C22FEF
:04400E00D4E0FFFFFC
:00000001FF
