:020000040000FA
:060000000A128A11F92F1B
:100F200083120313881472089300881008000A12B1
:100F30008A11A3270A128A110A128A1190270A120B
:100F40008A11972F0800831203131F14C730F30070
:100F5000A92FF30BA82FAC2FAD2F831203139F14CF
:100F60009F18B32FB42FB02F1E0886001E08F30061
:100F70007308F2000800831603130F088F396038D6
:100F80008F008F110F118F100F142130831603174C
:100F90008800890101308316031385008601103013
:100FA00087008801013089008312031385018601BF
:100FB0008701880189011F179F131F119F111F129D
:100FC0009F121F14831603139F131F129F12941353
:100FD000141383120313941614161408F0390238EC
:100FE00094000A128A1197270A128A110A128A118A
:100FF0000028F001F101F20183010A128A11BB2FCE
:04400E00D4E0FFFFFC
:00000001FF
