:020000040000FA
:060000000A128A110C280F
:10000800FE00030EF5000A08F6000A128A115C28A1
:100018000A128A110F28F001F101F201F30183019C
:100028000A128A111728831603130F088F396038AC
:100038008F008F110F118F100F14213083160317A3
:10004800880089010130831603138500860110306A
:100058008700880101308900831203138501860116
:100068008701880189011F179F131F119F111F12F4
:100078009F121F14831603139F131F129F129413AA
:10008800141383120313941614161408F039023843
:100098009400831603138C150B178B17F301F001CB
:1000A8000A128A1198200A128A110A128A110C2837
:1000B800831203138C1D612862286E281308F4002C
:1000C8007408F30073088600831603131410831250
:1000D80003138C1176088A00750E8300FE0E7E0EBF
:1000E8000900831203131F14C730F7007B28F70B8E
:1000F8007A287E287F28831203139F149F18852847
:10010800862882281E08F7007708F0000800831662
:1001180003131418902891288B288312031388142A
:1001280070089300881008000A128A1175200A12B4
:100138008A110A128A118B200A128A11982808003B
:04400E00D4E0FFFFFC
:00000001FF
