:020000040000FA
:060000000A128A110C280F
:10000800FE00030EFB000A08FC000A128A116C2885
:100018000A128A110F28F001F101F201F301F4012B
:10002800F501F601F701F801F90183010A128A11B5
:100038001D28831603130F088F3960388F008F111E
:100048000F118F100F1401308316031788008901D0
:10005800013083160313850086011030870088015C
:1000680089018312031385018601870188018901AB
:100078001F179F131F119F111F129F121F14831602
:1000880003139F131F129F12941314138312031345
:10009800941614161408F0390238940083160313C2
:1000A8008C150B178B1719309900181598161812FC
:1000B800181383120313181698171813F901F5016A
:1000C8000A128A11B7200A128A110A128A110C28F8
:1000D800831203138C1D7128722885287703031D4A
:1000E8007628772885281308FA007A08F80078080F
:1000F8008900F701831603131410831203138C115C
:100108009A288C1D882889289A287708031D8D2805
:100118008E289A281308FA007A08F900F701F70AD6
:10012800831603131410831203138C117C088A009E
:100138007B0E8300FE0E7E0E0900831203131F142C
:10014800C730FD00A728FD0BA628AA28AB288312D4
:1001580003139F149F18B128B228AE281E08FD006B
:100168007D08F50008000A128A11A1200A128A11D6
:100178000A128A11D5200A128A110A128A11C82075
:100188000A128A11B7280800831203138C1ECD287F
:10019800CE28C8281A08FD007D08F30073088600D9
:1001A8000800831603131418DA28DB28D5288312CD
:0C01B800031388147508930088100800D9
:04400E00D4E0FFFFFC
:00000001FF
