:020000040000FA
:060000000A128A110C280F
:10000800FE00030EF5000A08F6000A128A115A28A3
:100018000A128A110F28F001F101F201F30183019C
:100028000A128A1117287030831603138F048F1150
:100038000F118F100F1421308316031788008901C0
:10004800013083160313850086011030870088016C
:100058000130890083120313850186018701880115
:1000680089011F179F131F119F111F129F121F1421
:10007800831603139F131F129F12941314138312D2
:100088000313941614161408F039023894008316D2
:1000980003138C150B178B17F301F0010A128A1141
:1000A80096200A128A110A128A110C288312031345
:1000B8008C1D5F2860286C281308F4007408F3006E
:1000C80073088600831603131410831203138C110C
:1000D80076088A00750E8300FE0E7E0E09008312D4
:1000E80003131F14C730F7007928F70B78287C28EA
:1000F8007D28831203139F149F188328842880283F
:100108001E08F7007708F000080083160313141878
:100118008E288F2889288312031388147008930067
:10012800881008000A128A1173200A128A110A120A
:0C0138008A1189200A128A1196280800FA
:04400E00D4E0FFFFFC
:00000001FF
