:020000040000FA
:060000000A128A110C280F
:10000800FE00030EF1000A08F2000A128A115928AC
:100018000A128A110F28F401F501F60183010A1268
:100028008A1116287030831603138F048F110F114D
:100038008F100F14213083160317880089010130AF
:10004800831603138500860110308700880101306C
:1000580089008312031385018601870188018901BC
:100068001F179F131F119F111F129F121F14831612
:1000780003139F131F129F12941314138312031355
:10008800941614161408F0390238940083160313D2
:100098008C150B178B17F701F70A0A128A1188209B
:1000A8000A128A110A128A110C28831203138C1D52
:1000B8005E285F286B281308F0007008F6007608A1
:1000C8008600831603131410831203138C1172080D
:1000D8008A00710E8300FE0E7E0E09008312031340
:1000E8001F14C730F3007828F30B77287B287C2867
:1000F800831203139F149F18822883287F281E08C1
:10010800F3007308F40008000A128A1172200A1218
:100118008A110A128A1194200A128A118828080062
:0E0128008312031388147408930088100800D3
:04400E00D4E0FFFFFC
:00000001FF
