:020000040000FA
:060000000A128A11F92F1B
:100F40000A128A11AB270A128A117108831203133D
:100F50008600A02F080083160313141CB02FB12F96
:100F6000BA2F831203131308F3007308F1008316DA
:100F7000031314100800831603130F088F39603809
:100F80008F008F110F118F100F140130831603176C
:100F900088008901213083160313850086011830EB
:100FA0008700880189018312031385018601870167
:100FB000880189011F179F131F119F111F129F1274
:100FC0001F14831603139F131F129F1294131413DD
:100FD00083120313941614161408F039043894007D
:100FE000F1010A128A11A0270A128A110A128A1123
:100FF0000028F001F101F20183010A128A11BB2FCE
:04400E00D4E0FFFFFC
:00000001FF
