:020000040000FA
:060000000A128A110C280F
:10000800FE00030EF5000A08F6000A128A115528A8
:100018000A128A110F28F001F101F201F30183019C
:100028000A128A1117287030831603138F048F1150
:100038000F118F100F1401308316031788008901E0
:100048002130831603138500860118308700880144
:1000580089018312031385018601870188018901BB
:100068001F179F131F14831603139F131F129F122A
:100078009413141383120313941614161408F039E6
:1000880004389400831603138C150B178B17F30190
:10009800F1010A128A1194200A128A110A128A118D
:1000A8000C28831203138C1D5A285B286728130811
:1000B800F4007408F3007308860083160313141001
:1000C800831203138C110A128A1189200A128A11C9
:1000D80076088A00750E8300FE0E7E0E0900C73072
:1000E800F7007628F70B752879287A28C330831209
:1000F80003139F051F149F149F18832884288028A2
:100108001E08F7007708F100080083160313141877
:100118008E288F28892871088312031393000800FA
:0E0128000A128A1173200A128A119428080004
:04400E00D4E0FFFFFC
:00000001FF
