:020000040000FA
:060000000A128A110C280F
:10000800FE00030EF1000A08F2000A128A115928AC
:100018000A128A110F28F401F501F60183010A1268
:100028008A1116287030831603138F048F110F114D
:100038008F100F14013083160317880089012130AF
:10004800831603138500860118308700880189010B
:1000580083120313850186018701880189011F170F
:100068009F131F119F111F129F121F148316031332
:100078009F131F129F1294131413831203139416C1
:1000880014161408F03904389400831603138C15D9
:100098000B178B17F701F70AF5010A128A11992035
:1000A8000A128A110A128A110C28831203138C1D52
:1000B8005E285F286B281308F0007008F6007608A1
:1000C8008600831603131410831203138C110A126B
:1000D8008A118D200A128A1172088A00710E830013
:1000E800FE0E7E0E0900831203131F14C730F3009F
:1000F8007D28F30B7C2880288128831203139F1402
:100108009F188728882884281E08F3007308F5009C
:100118000800831603131418922893288D2875084D
:10012800831203139300F70108000A128A1177203B
:080138000A128A11992808003F
:04400E00D4E0FFFFFC
:00000001FF
