:020000040000FA
:060000000A128A110C280F
:10000800FE00030EF5000A08F6000A128A115928A4
:100018000A128A110F28F001F101F201F30183019C
:100028000A128A1117287030831603138F048F1150
:100038000F118F100F1401308316031788008901E0
:100048002130831603138500860118308700880144
:1000580089018312031385018601870188018901BB
:100068001F179F131F119F111F129F121F14831612
:1000780003139F131F129F12941314138312031355
:10008800941614161408F0390438940083160313D0
:100098008C150B178B17F301F1010A128A1199209D
:1000A8000A128A110A128A110C28831203138C1D52
:1000B8005E285F286B281308F4007408F30073089F
:1000C8008600831603131410831203138C110A126B
:1000D8008A118D200A128A1176088A00750E83000B
:1000E800FE0E7E0E0900831203131F14C730F7009B
:1000F8007D28F70B7C2880288128831203139F14FE
:100108009F188728882884281E08F7007708F10098
:100118000800831603131418922893288D28710851
:10012800831203139300F20108000A128A11772040
:080138000A128A11992808003F
:04400E00D4E0FFFFFC
:00000001FF
