:020000040000FA
:060000000A128A110C280F
:10000800FE00030EF6000A08F7000A128A115928A2
:100018000A128A110F28F001F101F201F301F4012B
:1000280083010A128A111828831603130F088F39BF
:1000380060388F008F110F118F100F140330831643
:10004800031788008901233083160313850086016E
:1000580018308700880189018312031385018601FE
:100068008701880189011F179F131F148316031323
:100078009F131F129F1294131413831203139416C1
:1000880014161408F03904389400831603138C15D9
:100098000B178B17F401F201F3010A128A11D2200F
:1000A8000A128A110A128A110C28831203138C1D52
:1000B8005E285F2876287008031D63286428762840
:1000C8001308F5007508F4007408860083160313F6
:1000D8001410831203138C110A128A11C5200A12F4
:1000E8008A1190288C1D79287A2890287003031D7E
:1000F8007E287F2890281308F5007508F4007408F6
:100108008600831603131410831203138C110A122A
:100118008A11DE200A128A1177088A00760E830077
:10012800FE0E7E0E0900C730F8009A28F80B9928B1
:100138009D289E28831203131F08C33904389F0083
:100148001F149F149F18A928AA28A6281E08F8007B
:100158007808F3000800C730F800B228F80BB12877
:10016800B528B628C330831203139F051F149F14A4
:100178009F18BF28C028BC281E08F8007808F2007D
:100188000800831603131418CA28CB28C528720838
:10019800831203139300F001F00A08000A128A116F
:1001A800AF200A128A110A128A1197200A128A119C
:1001B800D2280800831603131418E328E428DE283D
:0C01C8007308831203139300F001080079
:04400E00D4E0FFFFFC
:00000001FF
